{
  "contractName": "SmartContract",
  "abi": [
    {
      "inputs": [],
      "stateMutability": "nonpayable",
      "type": "constructor"
    },
    {
      "anonymous": false,
      "inputs": [
        {
          "indexed": false,
          "internalType": "string",
          "name": "message",
          "type": "string"
        }
      ],
      "name": "contractModified",
      "type": "event"
    },
    {
      "anonymous": false,
      "inputs": [
        {
          "indexed": false,
          "internalType": "uint256",
          "name": "_paymentAmount",
          "type": "uint256"
        }
      ],
      "name": "paymentReleased",
      "type": "event"
    },
    {
      "anonymous": false,
      "inputs": [
        {
          "indexed": false,
          "internalType": "string",
          "name": "status",
          "type": "string"
        }
      ],
      "name": "progressStatus",
      "type": "event"
    },
    {
      "anonymous": false,
      "inputs": [],
      "name": "projectAccepted",
      "type": "event"
    },
    {
      "anonymous": false,
      "inputs": [],
      "name": "projectClosed",
      "type": "event"
    },
    {
      "anonymous": false,
      "inputs": [],
      "name": "projectCompleted",
      "type": "event"
    },
    {
      "anonymous": false,
      "inputs": [],
      "name": "projectCreated",
      "type": "event"
    },
    {
      "anonymous": false,
      "inputs": [],
      "name": "projectFunded",
      "type": "event"
    },
    {
      "anonymous": false,
      "inputs": [],
      "name": "projectIn_Progress",
      "type": "event"
    },
    {
      "anonymous": false,
      "inputs": [],
      "name": "projectIn_Review",
      "type": "event"
    },
    {
      "inputs": [],
      "name": "clientID",
      "outputs": [
        {
          "internalType": "address",
          "name": "",
          "type": "address"
        }
      ],
      "stateMutability": "view",
      "type": "function"
    },
    {
      "inputs": [],
      "name": "freelancerID",
      "outputs": [
        {
          "internalType": "address payable",
          "name": "",
          "type": "address"
        }
      ],
      "stateMutability": "view",
      "type": "function"
    },
    {
      "inputs": [],
      "name": "projectState",
      "outputs": [
        {
          "internalType": "enum SmartContract.ProjectState",
          "name": "",
          "type": "uint8"
        }
      ],
      "stateMutability": "view",
      "type": "function"
    },
    {
      "inputs": [
        {
          "internalType": "address",
          "name": "_freelancerID",
          "type": "address"
        },
        {
          "internalType": "string",
          "name": "_name_freelancer",
          "type": "string"
        },
        {
          "internalType": "string",
          "name": "_name_client",
          "type": "string"
        },
        {
          "internalType": "string",
          "name": "_date_endProject",
          "type": "string"
        },
        {
          "internalType": "string",
          "name": "_promises",
          "type": "string"
        },
        {
          "internalType": "uint256",
          "name": "_paymentAmount",
          "type": "uint256"
        },
        {
          "internalType": "string",
          "name": "message",
          "type": "string"
        }
      ],
      "name": "modifyContract",
      "outputs": [],
      "stateMutability": "nonpayable",
      "type": "function"
    },
    {
      "inputs": [],
      "name": "acceptContract",
      "outputs": [],
      "stateMutability": "nonpayable",
      "type": "function"
    },
    {
      "inputs": [],
      "name": "fundContract",
      "outputs": [],
      "stateMutability": "payable",
      "type": "function"
    },
    {
      "inputs": [],
      "name": "startProject",
      "outputs": [],
      "stateMutability": "nonpayable",
      "type": "function"
    },
    {
      "inputs": [],
      "name": "requestProjectReview",
      "outputs": [],
      "stateMutability": "nonpayable",
      "type": "function"
    },
    {
      "inputs": [],
      "name": "acceptReview",
      "outputs": [],
      "stateMutability": "nonpayable",
      "type": "function"
    },
    {
      "inputs": [],
      "name": "rejectReview",
      "outputs": [],
      "stateMutability": "nonpayable",
      "type": "function"
    },
    {
      "inputs": [],
      "name": "releasePayment",
      "outputs": [],
      "stateMutability": "payable",
      "type": "function"
    },
    {
      "inputs": [],
      "name": "closeProject",
      "outputs": [],
      "stateMutability": "nonpayable",
      "type": "function"
    },
    {
      "inputs": [
        {
          "internalType": "string",
          "name": "_status",
          "type": "string"
        }
      ],
      "name": "updateProgress",
      "outputs": [],
      "stateMutability": "nonpayable",
      "type": "function"
    },
    {
      "inputs": [],
      "name": "getBalance",
      "outputs": [
        {
          "internalType": "uint256",
          "name": "payment",
          "type": "uint256"
        }
      ],
      "stateMutability": "view",
      "type": "function"
    }
  ],
  "bytecode": "0x608060405234801561001057600080fd5b5033600960006101000a81548173ffffffffffffffffffffffffffffffffffffffff021916908373ffffffffffffffffffffffffffffffffffffffff1602179055506000600960146101000a81548160ff0219169083600881111561007857610077610082565b5b02179055506100b1565b7f4e487b7100000000000000000000000000000000000000000000000000000000600052602160045260246000fd5b6114b3806100c06000396000f3fe6080604052600436106100dd5760003560e01c8063bd097e211161007f578063d2889bb611610059578063d2889bb6146101fa578063d8b9182b14610225578063da6909a51461023c578063ed7e17ec14610267576100dd565b8063bd097e21146101cf578063c7656f6e146101d9578063d116c8c4146101f0576100dd565b806397e2613c116100bb57806397e2613c1461014f5780639ccc67f2146101665780639de8cae31461018f578063ae51286d146101a6576100dd565b806312065fe0146100e2578063619d26711461010d578063748807ab14610124575b600080fd5b3480156100ee57600080fd5b506100f761027e565b6040516101049190610f04565b60405180910390f35b34801561011957600080fd5b50610122610286565b005b34801561013057600080fd5b506101396103d3565b6040516101469190610f96565b60405180910390f35b34801561015b57600080fd5b506101646103e6565b005b34801561017257600080fd5b5061018d60048036038101906101889190611195565b6104db565b005b34801561019b57600080fd5b506101a46106b3565b005b3480156101b257600080fd5b506101cd60048036038101906101c891906112c3565b6107a8565b005b6101d761087e565b005b3480156101e557600080fd5b506101ee610958565b005b6101f8610a4d565b005b34801561020657600080fd5b5061020f610bba565b60405161021c919061131b565b60405180910390f35b34801561023157600080fd5b5061023a610be0565b005b34801561024857600080fd5b50610251610d2d565b60405161025e9190611357565b60405180910390f35b34801561027357600080fd5b5061027c610d53565b005b600047905090565b600080600881111561029b5761029a610f1f565b5b600960149054906101000a900460ff1660088111156102bd576102bc610f1f565b5b146102c757600080fd5b600860009054906101000a900473ffffffffffffffffffffffffffffffffffffffff1673ffffffffffffffffffffffffffffffffffffffff163373ffffffffffffffffffffffffffffffffffffffff1614806103705750600960009054906101000a900473ffffffffffffffffffffffffffffffffffffffff1673ffffffffffffffffffffffffffffffffffffffff163373ffffffffffffffffffffffffffffffffffffffff16145b61037957600080fd5b6003600960146101000a81548160ff0219169083600881111561039f5761039e610f1f565b5b02179055507f88bcd7461b61ca9be9b9916c1c7011bca29ee3947846dd3b95fcf36fd34fa1a660405160405180910390a150565b600960149054906101000a900460ff1681565b60058060088111156103fb576103fa610f1f565b5b600960149054906101000a900460ff16600881111561041d5761041c610f1f565b5b1461042757600080fd5b600960009054906101000a900473ffffffffffffffffffffffffffffffffffffffff1673ffffffffffffffffffffffffffffffffffffffff163373ffffffffffffffffffffffffffffffffffffffff161461048157600080fd5b6004600960146101000a81548160ff021916908360088111156104a7576104a6610f1f565b5b02179055507f4e7a6401d88087aede225409f63320d6fed3b1554e44f3c419a28b52dd62e7f760405160405180910390a150565b60008060088111156104f0576104ef610f1f565b5b600960149054906101000a900460ff16600881111561051257610511610f1f565b5b1461051c57600080fd5b600860009054906101000a900473ffffffffffffffffffffffffffffffffffffffff1673ffffffffffffffffffffffffffffffffffffffff163373ffffffffffffffffffffffffffffffffffffffff1614806105c55750600960009054906101000a900473ffffffffffffffffffffffffffffffffffffffff1673ffffffffffffffffffffffffffffffffffffffff163373ffffffffffffffffffffffffffffffffffffffff16145b6105ce57600080fd5b87600860006101000a81548173ffffffffffffffffffffffffffffffffffffffff021916908373ffffffffffffffffffffffffffffffffffffffff1602179055508660009080519060200190610625929190610e48565b50856001908051906020019061063c929190610e48565b508460039080519060200190610653929190610e48565b50836004908051906020019061066a929190610e48565b50826007819055507f783987deb61419b55f3fcaeae7a2602ab06868aa84ca2519f8fd0ff29848eb38826040516106a191906113fa565b60405180910390a15050505050505050565b60058060088111156106c8576106c7610f1f565b5b600960149054906101000a900460ff1660088111156106ea576106e9610f1f565b5b146106f457600080fd5b600960009054906101000a900473ffffffffffffffffffffffffffffffffffffffff1673ffffffffffffffffffffffffffffffffffffffff163373ffffffffffffffffffffffffffffffffffffffff161461074e57600080fd5b6006600960146101000a81548160ff0219169083600881111561077457610773610f1f565b5b02179055507fc62218787f35264de66df2a86f8a992e7426cbe55acd14fe8ce1f4e23624c25b60405160405180910390a150565b60048060088111156107bd576107bc610f1f565b5b600960149054906101000a900460ff1660088111156107df576107de610f1f565b5b146107e957600080fd5b600860009054906101000a900473ffffffffffffffffffffffffffffffffffffffff1673ffffffffffffffffffffffffffffffffffffffff163373ffffffffffffffffffffffffffffffffffffffff161461084357600080fd5b7fd80916f5e5be65c7d8188b174708977b4bf373a45dd1925d32c2832aa9a3fff28260405161087291906113fa565b60405180910390a15050565b600280600881111561089357610892610f1f565b5b600960149054906101000a900460ff1660088111156108b5576108b4610f1f565b5b146108bf57600080fd5b3480600754146108ce57600080fd5b600960009054906101000a900473ffffffffffffffffffffffffffffffffffffffff1673ffffffffffffffffffffffffffffffffffffffff163373ffffffffffffffffffffffffffffffffffffffff161461092857600080fd5b7ffcf11e75c50439d4dc18c88ce601665d8b14c4af48e01caa2c19902242bd100a60405160405180910390a15050565b600380600881111561096d5761096c610f1f565b5b600960149054906101000a900460ff16600881111561098f5761098e610f1f565b5b1461099957600080fd5b600860009054906101000a900473ffffffffffffffffffffffffffffffffffffffff1673ffffffffffffffffffffffffffffffffffffffff163373ffffffffffffffffffffffffffffffffffffffff16146109f357600080fd5b6004600960146101000a81548160ff02191690836008811115610a1957610a18610f1f565b5b02179055507f4e7a6401d88087aede225409f63320d6fed3b1554e44f3c419a28b52dd62e7f760405160405180910390a150565b6006806008811115610a6257610a61610f1f565b5b600960149054906101000a900460ff166008811115610a8457610a83610f1f565b5b14610a8e57600080fd5b600860009054906101000a900473ffffffffffffffffffffffffffffffffffffffff1673ffffffffffffffffffffffffffffffffffffffff163373ffffffffffffffffffffffffffffffffffffffff1614610ae857600080fd5b600860009054906101000a900473ffffffffffffffffffffffffffffffffffffffff1673ffffffffffffffffffffffffffffffffffffffff166108fc6007549081150290604051600060405180830381858888f19350505050158015610b52573d6000803e3d6000fd5b506007600960146101000a81548160ff02191690836008811115610b7957610b78610f1f565b5b02179055507fc1522919030c185e14576837d4bc01b4773f4493a148c31f59e984d5b7a50d93600754604051610baf9190610f04565b60405180910390a150565b600960009054906101000a900473ffffffffffffffffffffffffffffffffffffffff1681565b6007806008811115610bf557610bf4610f1f565b5b600960149054906101000a900460ff166008811115610c1757610c16610f1f565b5b14610c2157600080fd5b600860009054906101000a900473ffffffffffffffffffffffffffffffffffffffff1673ffffffffffffffffffffffffffffffffffffffff163373ffffffffffffffffffffffffffffffffffffffff161480610cca5750600960009054906101000a900473ffffffffffffffffffffffffffffffffffffffff1673ffffffffffffffffffffffffffffffffffffffff163373ffffffffffffffffffffffffffffffffffffffff16145b610cd357600080fd5b6008600960146101000a81548160ff02191690836008811115610cf957610cf8610f1f565b5b02179055507fd9cee46dd8a5b049b7b96e7f58e67bfb0445d5c583719d84d412e76308bd669d60405160405180910390a150565b600860009054906101000a900473ffffffffffffffffffffffffffffffffffffffff1681565b6004806008811115610d6857610d67610f1f565b5b600960149054906101000a900460ff166008811115610d8a57610d89610f1f565b5b14610d9457600080fd5b600860009054906101000a900473ffffffffffffffffffffffffffffffffffffffff1673ffffffffffffffffffffffffffffffffffffffff163373ffffffffffffffffffffffffffffffffffffffff1614610dee57600080fd5b6005600960146101000a81548160ff02191690836008811115610e1457610e13610f1f565b5b02179055507f4dd33910f827b119697382bf94550e7ed9cd499661ef2f7f8b8755c179617bdd60405160405180910390a150565b828054610e549061144b565b90600052602060002090601f016020900481019282610e765760008555610ebd565b82601f10610e8f57805160ff1916838001178555610ebd565b82800160010185558215610ebd579182015b82811115610ebc578251825591602001919060010190610ea1565b5b509050610eca9190610ece565b5090565b5b80821115610ee7576000816000905550600101610ecf565b5090565b6000819050919050565b610efe81610eeb565b82525050565b6000602082019050610f196000830184610ef5565b92915050565b7f4e487b7100000000000000000000000000000000000000000000000000000000600052602160045260246000fd5b60098110610f5f57610f5e610f1f565b5b50565b6000819050610f7082610f4e565b919050565b6000610f8082610f62565b9050919050565b610f9081610f75565b82525050565b6000602082019050610fab6000830184610f87565b92915050565b6000604051905090565b600080fd5b600080fd5b600073ffffffffffffffffffffffffffffffffffffffff82169050919050565b6000610ff082610fc5565b9050919050565b61100081610fe5565b811461100b57600080fd5b50565b60008135905061101d81610ff7565b92915050565b600080fd5b600080fd5b6000601f19601f8301169050919050565b7f4e487b7100000000000000000000000000000000000000000000000000000000600052604160045260246000fd5b6110768261102d565b810181811067ffffffffffffffff821117156110955761109461103e565b5b80604052505050565b60006110a8610fb1565b90506110b4828261106d565b919050565b600067ffffffffffffffff8211156110d4576110d361103e565b5b6110dd8261102d565b9050602081019050919050565b82818337600083830152505050565b600061110c611107846110b9565b61109e565b90508281526020810184848401111561112857611127611028565b5b6111338482856110ea565b509392505050565b600082601f8301126111505761114f611023565b5b81356111608482602086016110f9565b91505092915050565b61117281610eeb565b811461117d57600080fd5b50565b60008135905061118f81611169565b92915050565b600080600080600080600060e0888a0312156111b4576111b3610fbb565b5b60006111c28a828b0161100e565b975050602088013567ffffffffffffffff8111156111e3576111e2610fc0565b5b6111ef8a828b0161113b565b965050604088013567ffffffffffffffff8111156112105761120f610fc0565b5b61121c8a828b0161113b565b955050606088013567ffffffffffffffff81111561123d5761123c610fc0565b5b6112498a828b0161113b565b945050608088013567ffffffffffffffff81111561126a57611269610fc0565b5b6112768a828b0161113b565b93505060a06112878a828b01611180565b92505060c088013567ffffffffffffffff8111156112a8576112a7610fc0565b5b6112b48a828b0161113b565b91505092959891949750929550565b6000602082840312156112d9576112d8610fbb565b5b600082013567ffffffffffffffff8111156112f7576112f6610fc0565b5b6113038482850161113b565b91505092915050565b61131581610fe5565b82525050565b6000602082019050611330600083018461130c565b92915050565b600061134182610fc5565b9050919050565b61135181611336565b82525050565b600060208201905061136c6000830184611348565b92915050565b600081519050919050565b600082825260208201905092915050565b60005b838110156113ac578082015181840152602081019050611391565b838111156113bb576000848401525b50505050565b60006113cc82611372565b6113d6818561137d565b93506113e681856020860161138e565b6113ef8161102d565b840191505092915050565b6000602082019050818103600083015261141481846113c1565b905092915050565b7f4e487b7100000000000000000000000000000000000000000000000000000000600052602260045260246000fd5b6000600282049050600182168061146357607f821691505b602082108114156114775761147661141c565b5b5091905056fea2646970667358221220e561e22a4b90531f00415fb688163bbca93fac626b6aaf1b2928ee94de8e700e64736f6c634300080b0033",
  "immutableReferences": {},
  "source": "// SPDX-License-Identifier: MIT\r\npragma solidity 0.8.11;\r\n\r\ncontract SmartContract {\r\n    \r\n    // identifier for various sequential project states\r\n    // 1. INITIALIZED:  smart contract object created - nothing added yet\r\n    // 2. CREATED:      smart contract details created by freelancer\r\n    // 3. ACCEPTED:     project accepted by client\r\n    // 4. FUNDED:       fundings added by client\r\n    // 5. IN_PROGRESS:  project started by freelancer\r\n    // 6. IN_REVIEW:    project finished and in review by client\r\n    // 7. COMPLETED:    project confirmed by client and funds are released to freelancer\r\n    // 8. CLOSED:       project is closed - cannot be modified further\r\n    enum ProjectState {INITIALIZED, CREATED, FUNDED, ACCEPTED, IN_PROGRESS, IN_REVIEW, COMPLETED, PAID, CLOSED}\r\n    string private name_freelancer;\r\n    string private name_client;\r\n    string private date_startProject;\r\n    string private date_endProject;\r\n    string private promises;\r\n    string private signiture_freelancer;\r\n    string private signiture_client;\r\n    uint256 private paymentAmount;\r\n    address payable public freelancerID;\r\n    address public clientID;\r\n    ProjectState public projectState;\r\n    \r\n    event projectCreated();\r\n    event projectFunded();\r\n    event projectAccepted();\r\n    event projectIn_Progress();\r\n    event projectIn_Review();\r\n    event projectCompleted();\r\n    event progressStatus(string status);\r\n    event paymentReleased(uint256 _paymentAmount);\r\n    event projectClosed();\r\n    event contractModified(string message);\r\n\r\n    modifier currProjectState(ProjectState _projectstate) {\r\n        require(projectState == _projectstate);\r\n        _;\r\n    }\r\n\r\n    modifier freelancerOnly() {\r\n        require(msg.sender == freelancerID);\r\n        _;\r\n    }\r\n\r\n    modifier clientOnly() {\r\n        require(msg.sender == clientID);\r\n        _;\r\n    }\r\n\r\n    modifier freelancerOrClientOnly() {\r\n        require(msg.sender == freelancerID || msg.sender == clientID);\r\n        _;\r\n    }\r\n\r\n    modifier ampleFunding(uint256 _payment) {\r\n        require(paymentAmount == _payment);\r\n        _;\r\n    }\r\n    \r\n\r\n    // initialize project - ***can only be created by client <- this specification must be enforced in either FE or BE\r\n    constructor() {\r\n        clientID = msg.sender;\r\n        projectState = ProjectState.INITIALIZED;\r\n    }\r\n\r\n    function modifyContract(address _freelancerID, string memory _name_freelancer, string memory _name_client, string memory _date_endProject, string memory _promises, uint256 _paymentAmount, string memory message) public currProjectState(ProjectState.INITIALIZED) freelancerOrClientOnly {\r\n        freelancerID = payable(_freelancerID);\r\n\r\n        name_freelancer = _name_freelancer;\r\n        name_client = _name_client;\r\n        date_endProject = _date_endProject;\r\n        promises = _promises;\r\n        paymentAmount = _paymentAmount;\r\n\r\n        emit contractModified(message);\r\n    }\r\n\r\n    function acceptContract() public currProjectState(ProjectState.INITIALIZED) freelancerOrClientOnly {\r\n        projectState = ProjectState.ACCEPTED;\r\n        emit projectCreated();\r\n    }\r\n\r\n    function fundContract() public payable currProjectState(ProjectState.FUNDED) ampleFunding(msg.value) clientOnly {\r\n        emit projectFunded();\r\n    }\r\n\r\n    function startProject() public currProjectState(ProjectState.ACCEPTED) freelancerOnly {\r\n        projectState = ProjectState.IN_PROGRESS;\r\n        emit projectIn_Progress();\r\n    }\r\n\r\n    function requestProjectReview() public currProjectState(ProjectState.IN_PROGRESS) freelancerOnly {\r\n        projectState = ProjectState.IN_REVIEW;        \r\n        emit projectIn_Review();\r\n    }\r\n\r\n    // review accepted\r\n    function acceptReview() public currProjectState(ProjectState.IN_REVIEW) clientOnly {\r\n        projectState = ProjectState.COMPLETED;\r\n        emit projectCompleted();\r\n    }\r\n\r\n    // review rejected\r\n    function rejectReview() public currProjectState(ProjectState.IN_REVIEW) clientOnly {\r\n        projectState = ProjectState.IN_PROGRESS;\r\n        emit projectIn_Progress();\r\n    }\r\n\r\n    function releasePayment() public payable currProjectState(ProjectState.COMPLETED) freelancerOnly{\r\n        freelancerID.transfer(paymentAmount);\r\n        projectState = ProjectState.PAID;\r\n        emit paymentReleased(paymentAmount);  \r\n    }\r\n    \r\n    function closeProject() public currProjectState(ProjectState.PAID) freelancerOrClientOnly {\r\n        projectState = ProjectState.CLOSED;\r\n        emit projectClosed();\r\n    }\r\n\r\n    // how the freelancer can update (give notes on) their current project status\r\n    // this info should be visible and be pulled by the client \r\n    function updateProgress(string memory _status) public currProjectState(ProjectState.IN_PROGRESS) freelancerOnly{\r\n        emit progressStatus(_status);\r\n    }\r\n\r\n    function getBalance() public view returns (uint256 payment) {\r\n        return address(this).balance;\r\n    }\r\n\r\n}",
  "sourcePath": "C:\\Users\\Austin Cho\\Documents\\Project\\contrio-nw\\contracts\\SmartContract.sol",
  "compiler": {
    "name": "solc",
    "version": "0.8.11+commit.d7f03943.Emscripten.clang"
  },
  "schemaVersion": "3.4.4",
  "updatedAt": "2022-01-16T00:18:41.067Z",
  "devdoc": {
    "kind": "dev",
    "methods": {},
    "version": 1
  },
  "userdoc": {
    "kind": "user",
    "methods": {},
    "version": 1
  }
}